{
  "contractName": "Voting",
  "abi": [
    {
      "constant": true,
      "inputs": [
        {
          "name": "",
          "type": "uint256"
        }
      ],
      "name": "BidMap",
      "outputs": [
        {
          "name": "deadLine",
          "type": "uint256"
        },
        {
          "name": "bidHash",
          "type": "bytes32"
        },
        {
          "name": "lowestBidder",
          "type": "address"
        },
        {
          "name": "lowestBid",
          "type": "uint256"
        },
        {
          "name": "Sender",
          "type": "address"
        }
      ],
      "payable": false,
      "stateMutability": "view",
      "type": "function"
    },
    {
      "constant": true,
      "inputs": [],
      "name": "myGlobalCounter",
      "outputs": [
        {
          "name": "",
          "type": "uint256"
        }
      ],
      "payable": false,
      "stateMutability": "view",
      "type": "function"
    },
    {
      "constant": true,
      "inputs": [],
      "name": "token",
      "outputs": [
        {
          "name": "",
          "type": "address"
        }
      ],
      "payable": false,
      "stateMutability": "view",
      "type": "function"
    },
    {
      "constant": false,
      "inputs": [
        {
          "name": "timeLimit",
          "type": "uint256"
        }
      ],
      "name": "startBidding",
      "outputs": [
        {
          "name": "BiddingID",
          "type": "uint256"
        }
      ],
      "payable": false,
      "stateMutability": "nonpayable",
      "type": "function"
    },
    {
      "constant": false,
      "inputs": [
        {
          "name": "BiddingID",
          "type": "uint256"
        },
        {
          "name": "BidderHash",
          "type": "bytes32"
        },
        {
          "name": "BidAmount",
          "type": "uint256"
        }
      ],
      "name": "Bid",
      "outputs": [
        {
          "name": "lowestBidder",
          "type": "address"
        }
      ],
      "payable": false,
      "stateMutability": "nonpayable",
      "type": "function"
    },
    {
      "constant": false,
      "inputs": [
        {
          "name": "BiddingID",
          "type": "uint256"
        },
        {
          "name": "key",
          "type": "bytes32"
        }
      ],
      "name": "BidEnd",
      "outputs": [
        {
          "name": "lowestBidder",
          "type": "address"
        }
      ],
      "payable": false,
      "stateMutability": "nonpayable",
      "type": "function"
    },
    {
      "constant": false,
      "inputs": [
        {
          "name": "BiddingID",
          "type": "uint256"
        }
      ],
      "name": "clean",
      "outputs": [],
      "payable": false,
      "stateMutability": "nonpayable",
      "type": "function"
    }
  ],
  "bytecode": "0x6060604052341561000f57600080fd5b6106688061001e6000396000f300606060405260043610610083576000357c0100000000000000000000000000000000000000000000000000000000900463ffffffff168063674ef0fa1461008857806371dc19c7146100ab578063840ba10c1461015e578063a09e9c1d146101ce578063bf47103914610205578063e542eb061461022e578063fc0c546a146102a7575b600080fd5b341561009357600080fd5b6100a960048080359060200190919050506102fc565b005b34156100b657600080fd5b6100cc60048080359060200190919050506103c4565b6040518086815260200185600019166000191681526020018473ffffffffffffffffffffffffffffffffffffffff1673ffffffffffffffffffffffffffffffffffffffff1681526020018381526020018273ffffffffffffffffffffffffffffffffffffffff1673ffffffffffffffffffffffffffffffffffffffff1681526020019550505050505060405180910390f35b341561016957600080fd5b61018c60048080359060200190919080356000191690602001909190505061043a565b604051808273ffffffffffffffffffffffffffffffffffffffff1673ffffffffffffffffffffffffffffffffffffffff16815260200191505060405180910390f35b34156101d957600080fd5b6101ef6004808035906020019091905050610480565b6040518082815260200191505060405180910390f35b341561021057600080fd5b61021861052a565b6040518082815260200191505060405180910390f35b341561023957600080fd5b610265600480803590602001909190803560001916906020019091908035906020019091905050610530565b604051808273ffffffffffffffffffffffffffffffffffffffff1673ffffffffffffffffffffffffffffffffffffffff16815260200191505060405180910390f35b34156102b257600080fd5b6102ba610617565b604051808273ffffffffffffffffffffffffffffffffffffffff1673ffffffffffffffffffffffffffffffffffffffff16815260200191505060405180910390f35b600060016000838152602001908152602001600020905060008160000181905550600060010281600101816000191690555060008160020160006101000a81548173ffffffffffffffffffffffffffffffffffffffff021916908373ffffffffffffffffffffffffffffffffffffffff1602179055506000816003018190555060008160040160006101000a81548173ffffffffffffffffffffffffffffffffffffffff021916908373ffffffffffffffffffffffffffffffffffffffff1602179055505050565b60016020528060005260406000206000915090508060000154908060010154908060020160009054906101000a900473ffffffffffffffffffffffffffffffffffffffff16908060030154908060040160009054906101000a900473ffffffffffffffffffffffffffffffffffffffff16905085565b6000806001600085815260200190815260200160002090508060020160009054906101000a900473ffffffffffffffffffffffffffffffffffffffff1691505092915050565b6000600260008154809291906001019190505590508143016001600083815260200190815260200160002060000181905550336001600083815260200190815260200160002060040160006101000a81548173ffffffffffffffffffffffffffffffffffffffff021916908373ffffffffffffffffffffffffffffffffffffffff160217905550620186a06001600083815260200190815260200160002060030181905550919050565b60025481565b600080600160008681526020019081526020016000209050828160030154108061055d5750438160000154105b1561058e578060020160009054906101000a900473ffffffffffffffffffffffffffffffffffffffff16915061060f565b338160020160006101000a81548173ffffffffffffffffffffffffffffffffffffffff021916908373ffffffffffffffffffffffffffffffffffffffff160217905550828160030181905550838160010181600019169055508060020160009054906101000a900473ffffffffffffffffffffffffffffffffffffffff1691505b509392505050565b6000809054906101000a900473ffffffffffffffffffffffffffffffffffffffff16815600a165627a7a723058201387328011d92efa41c624b2cacd9124cca76f51514cf096cb21e21f3325b2740029",
  "source": "pragma solidity ^0.4.19;\n\nimport './ERC223.sol';\nimport './SafeMath.sol';\nimport './Token.sol';\n\ncontract Voting{\n    \n    ERC223Token public token;\n\tstruct Bidding{\n\t// structure of the bidding\n\tuint deadLine; // denotes the end time for the auction.\n\tbytes32 bidHash; // the hash which will be sent by the winner of the Bidding for payment release\n\taddress lowestBidder; // current lowest Bidder\n\tuint lowestBid; // the current amount for the lowest Bid\n\taddress Sender; // the person who will receive money for the lowest bid.\n\t}\n\t\n\t\n\n\tmapping (uint=>Bidding) public BidMap; // A hashmap for BidId to the Bidding Structure.\n\tuint public myGlobalCounter; //keeps count for the number of Bidding Contracts.\n\n\tfunction startBidding(uint timeLimit) returns (uint BiddingID){\n\tBiddingID= myGlobalCounter++;\n\tBidMap[BiddingID].deadLine=block.number+timeLimit;\n\tBidMap[BiddingID].Sender=msg.sender;\n\tBidMap[BiddingID].lowestBid=100000;\n\t}\n\n\tfunction Bid(uint BiddingID, bytes32 BidderHash, uint BidAmount) returns (address lowestBidder){\n\tBidding B = BidMap[BiddingID];\n\tif (B.lowestBid<BidAmount || B.deadLine<block.number) {\n\treturn B.lowestBidder;\n\t}\n\tB.lowestBidder=msg.sender;\n\tB.lowestBid= BidAmount;\n\tB.bidHash= BidderHash;\n\treturn B.lowestBidder;\n\t}\n\n\tfunction BidEnd(uint BiddingID, bytes32 key) returns (address lowestBidder){\n\tBidding B = BidMap[BiddingID];\n\treturn B.lowestBidder;\n\t//if (block.number>=B.deadLine && token.balanceOf(B.Sender)>=B.lowestBid ){\n\t//token.transfer(B.lowestBidder,B.lowestBid);\n\t//CF.pay(B.lowestBidder,B.lowestBid);\n\t//return B.lowestBidder;\n\t//clean(BiddingID);\n\t//}\n\t}\n\t\n\n\tfunction clean(uint BiddingID) {\n\tBidding B = BidMap[BiddingID];\n\tB.deadLine=0;\n\tB.bidHash=0;\n\tB.lowestBidder=0;\n\tB.lowestBid=0;\n\tB.Sender=0;\n\t}\n\n}\n",
  "sourcePath": "/home/achal/Bidding/contracts/Voting.sol",
  "compiler": {
    "name": "solc",
    "version": "0.4.19+commit.c4cbbb05.Emscripten.clang"
  },
  "schemaVersion": "2.0.0",
  "updatedAt": "2018-04-03T15:25:04.088Z"
}